{
  "contractName": "SimpleResourceAllocation3",
  "abi": [
    {
      "inputs": [
        {
          "internalType": "uint256[]",
          "name": "_initQuotes",
          "type": "uint256[]"
        },
        {
          "internalType": "address[]",
          "name": "_whitelisteds",
          "type": "address[]"
        }
      ],
      "payable": false,
      "stateMutability": "nonpayable",
      "type": "constructor"
    },
    {
      "anonymous": false,
      "inputs": [
        {
          "indexed": true,
          "internalType": "address",
          "name": "account",
          "type": "address"
        }
      ],
      "name": "WhitelistAdminAdded",
      "type": "event"
    },
    {
      "anonymous": false,
      "inputs": [
        {
          "indexed": true,
          "internalType": "address",
          "name": "account",
          "type": "address"
        }
      ],
      "name": "WhitelistAdminRemoved",
      "type": "event"
    },
    {
      "anonymous": false,
      "inputs": [
        {
          "indexed": true,
          "internalType": "address",
          "name": "account",
          "type": "address"
        }
      ],
      "name": "WhitelistedAdded",
      "type": "event"
    },
    {
      "anonymous": false,
      "inputs": [
        {
          "indexed": true,
          "internalType": "address",
          "name": "account",
          "type": "address"
        }
      ],
      "name": "WhitelistedRemoved",
      "type": "event"
    },
    {
      "anonymous": false,
      "inputs": [
        {
          "indexed": false,
          "internalType": "address",
          "name": "_releaser",
          "type": "address"
        },
        {
          "indexed": false,
          "internalType": "uint256",
          "name": "resId",
          "type": "uint256"
        }
      ],
      "name": "successRelease",
      "type": "event"
    },
    {
      "anonymous": false,
      "inputs": [
        {
          "indexed": false,
          "internalType": "address",
          "name": "_requester",
          "type": "address"
        },
        {
          "indexed": false,
          "internalType": "uint256",
          "name": "resId",
          "type": "uint256"
        }
      ],
      "name": "successRequest",
      "type": "event"
    },
    {
      "constant": false,
      "inputs": [
        {
          "internalType": "address",
          "name": "account",
          "type": "address"
        }
      ],
      "name": "addWhitelistAdmin",
      "outputs": [],
      "payable": false,
      "stateMutability": "nonpayable",
      "type": "function"
    },
    {
      "constant": false,
      "inputs": [
        {
          "internalType": "address",
          "name": "account",
          "type": "address"
        }
      ],
      "name": "addWhitelisted",
      "outputs": [],
      "payable": false,
      "stateMutability": "nonpayable",
      "type": "function"
    },
    {
      "constant": true,
      "inputs": [
        {
          "internalType": "address",
          "name": "account",
          "type": "address"
        }
      ],
      "name": "isWhitelistAdmin",
      "outputs": [
        {
          "internalType": "bool",
          "name": "",
          "type": "bool"
        }
      ],
      "payable": false,
      "stateMutability": "view",
      "type": "function"
    },
    {
      "constant": true,
      "inputs": [
        {
          "internalType": "address",
          "name": "account",
          "type": "address"
        }
      ],
      "name": "isWhitelisted",
      "outputs": [
        {
          "internalType": "bool",
          "name": "",
          "type": "bool"
        }
      ],
      "payable": false,
      "stateMutability": "view",
      "type": "function"
    },
    {
      "constant": false,
      "inputs": [
        {
          "internalType": "address",
          "name": "account",
          "type": "address"
        }
      ],
      "name": "removeWhitelisted",
      "outputs": [],
      "payable": false,
      "stateMutability": "nonpayable",
      "type": "function"
    },
    {
      "constant": false,
      "inputs": [],
      "name": "renounceWhitelistAdmin",
      "outputs": [],
      "payable": false,
      "stateMutability": "nonpayable",
      "type": "function"
    },
    {
      "constant": false,
      "inputs": [],
      "name": "renounceWhitelisted",
      "outputs": [],
      "payable": false,
      "stateMutability": "nonpayable",
      "type": "function"
    },
    {
      "constant": false,
      "inputs": [
        {
          "internalType": "uint256",
          "name": "_resId",
          "type": "uint256"
        }
      ],
      "name": "request",
      "outputs": [
        {
          "internalType": "bool",
          "name": "_success",
          "type": "bool"
        }
      ],
      "payable": false,
      "stateMutability": "nonpayable",
      "type": "function"
    },
    {
      "constant": false,
      "inputs": [
        {
          "internalType": "uint256",
          "name": "_resId",
          "type": "uint256"
        }
      ],
      "name": "release",
      "outputs": [
        {
          "internalType": "bool",
          "name": "_success",
          "type": "bool"
        }
      ],
      "payable": false,
      "stateMutability": "nonpayable",
      "type": "function"
    },
    {
      "constant": true,
      "inputs": [],
      "name": "viewAllQuotes",
      "outputs": [
        {
          "internalType": "uint256[]",
          "name": "",
          "type": "uint256[]"
        }
      ],
      "payable": false,
      "stateMutability": "view",
      "type": "function"
    },
    {
      "constant": true,
      "inputs": [],
      "name": "viewMyResources",
      "outputs": [
        {
          "internalType": "bool[]",
          "name": "",
          "type": "bool[]"
        }
      ],
      "payable": false,
      "stateMutability": "view",
      "type": "function"
    }
  ],
  "bytecode": "0x60806040523480156200001157600080fd5b506040516200173338038062001733833981810160405260408110156200003757600080fd5b81019080805160405193929190846401000000008211156200005857600080fd5b838201915060208201858111156200006f57600080fd5b82518660208202830111640100000000821117156200008d57600080fd5b8083526020830192505050908051906020019060200280838360005b83811015620000c6578082015181840152602081019050620000a9565b5050505090500160405260200180516040519392919084640100000000821115620000f057600080fd5b838201915060208201858111156200010757600080fd5b82518660208202830111640100000000821117156200012557600080fd5b8083526020830192505050908051906020019060200280838360005b838110156200015e57808201518184015260208101905062000141565b505050509050016040525050506200018b6200017f620001f060201b60201c565b620001f860201b60201c565b8160029080519060200190620001a39291906200052d565b5060008090505b8151811015620001e757620001d9828281518110620001c557fe5b60200260200101516200025960201b60201c565b8080600101915050620001aa565b505050620005a7565b600033905090565b62000213816000620002e460201b62000e461790919060201c565b8073ffffffffffffffffffffffffffffffffffffffff167f22380c05984257a1cb900161c713dd71d39e74820f1aea43bd3f1bdd2096129960405160405180910390a250565b620002796200026d620001f060201b60201c565b620003c860201b60201c565b620002d0576040517f08c379a0000000000000000000000000000000000000000000000000000000008152600401808060200182810382526040815260200180620016f36040913960400191505060405180910390fd5b620002e181620003ec60201b60201c565b50565b620002f682826200044d60201b60201c565b156200036a576040517f08c379a000000000000000000000000000000000000000000000000000000000815260040180806020018281038252601f8152602001807f526f6c65733a206163636f756e7420616c72656164792068617320726f6c650081525060200191505060405180910390fd5b60018260000160008373ffffffffffffffffffffffffffffffffffffffff1673ffffffffffffffffffffffffffffffffffffffff16815260200190815260200160002060006101000a81548160ff0219169083151502179055505050565b6000620003e58260006200044d60201b62000cb41790919060201c565b9050919050565b62000407816001620002e460201b62000e461790919060201c565b8073ffffffffffffffffffffffffffffffffffffffff167fee1504a83b6d4a361f4c1dc78ab59bfa30d6a3b6612c403e86bb01ef2984295f60405160405180910390a250565b60008073ffffffffffffffffffffffffffffffffffffffff168273ffffffffffffffffffffffffffffffffffffffff161415620004d6576040517f08c379a0000000000000000000000000000000000000000000000000000000008152600401808060200182810382526022815260200180620016d16022913960400191505060405180910390fd5b8260000160008373ffffffffffffffffffffffffffffffffffffffff1673ffffffffffffffffffffffffffffffffffffffff16815260200190815260200160002060009054906101000a900460ff16905092915050565b8280548282559060005260206000209081019282156200056c579160200282015b828111156200056b5782518255916020019190600101906200054e565b5b5090506200057b91906200057f565b5090565b620005a491905b80821115620005a057600081600090555060010162000586565b5090565b90565b61111a80620005b76000396000f3fe608060405234801561001057600080fd5b50600436106100a95760003560e01c80634c5a628c116100715780634c5a628c146102375780637362d9c814610241578063a95f2f4c14610285578063bb5f747b146102e4578063d6cd947314610340578063d845a4b31461034a576100a9565b806310154bad146100ae57806324db3192146100f2578063291d95491461015157806337bdc99b146101955780633af32abf146101db575b600080fd5b6100f0600480360360208110156100c457600080fd5b81019080803573ffffffffffffffffffffffffffffffffffffffff169060200190929190505050610390565b005b6100fa610401565b6040518080602001828103825283818151815260200191508051906020019060200280838360005b8381101561013d578082015181840152602081019050610122565b505050509050019250505060405180910390f35b6101936004803603602081101561016757600080fd5b81019080803573ffffffffffffffffffffffffffffffffffffffff1690602001909291905050506104df565b005b6101c1600480360360208110156101ab57600080fd5b8101908080359060200190929190505050610550565b604051808215151515815260200191505060405180910390f35b61021d600480360360208110156101f157600080fd5b81019080803573ffffffffffffffffffffffffffffffffffffffff1690602001909291905050506107fc565b604051808215151515815260200191505060405180910390f35b61023f610819565b005b6102836004803603602081101561025757600080fd5b81019080803573ffffffffffffffffffffffffffffffffffffffff16906020019092919050505061082b565b005b61028d61089c565b6040518080602001828103825283818151815260200191508051906020019060200280838360005b838110156102d05780820151818401526020810190506102b5565b505050509050019250505060405180910390f35b610326600480360360208110156102fa57600080fd5b81019080803573ffffffffffffffffffffffffffffffffffffffff1690602001909291905050506108f4565b604051808215151515815260200191505060405180910390f35b610348610911565b005b6103766004803603602081101561036057600080fd5b8101908080359060200190929190505050610923565b604051808215151515815260200191505060405180910390f35b6103a061039b610bf8565b6108f4565b6103f5576040517f08c379a00000000000000000000000000000000000000000000000000000000081526004018080602001828103825260408152602001806110436040913960400191505060405180910390fd5b6103fe81610c00565b50565b6060806002805490506040519080825280602002602001820160405280156104385781602001602082028038833980820191505090505b50905060008090505b6002805490508110156104d757600360003373ffffffffffffffffffffffffffffffffffffffff1673ffffffffffffffffffffffffffffffffffffffff168152602001908152602001600020600082815260200190815260200160002060009054906101000a900460ff168282815181106104b857fe5b6020026020010190151590811515815250508080600101915050610441565b508091505090565b6104ef6104ea610bf8565b6108f4565b610544576040517f08c379a00000000000000000000000000000000000000000000000000000000081526004018080602001828103825260408152602001806110436040913960400191505060405180910390fd5b61054d81610c5a565b50565b600061056261055d610bf8565b6107fc565b6105b7576040517f08c379a000000000000000000000000000000000000000000000000000000000815260040180806020018281038252603a815260200180611083603a913960400191505060405180910390fd5b600082101580156105cc575060028054905082105b61063e576040517f08c379a00000000000000000000000000000000000000000000000000000000081526004018080602001828103825260148152602001807f496e76616c6964207265736f757263652049642100000000000000000000000081525060200191505060405180910390fd5b60011515600360003373ffffffffffffffffffffffffffffffffffffffff1673ffffffffffffffffffffffffffffffffffffffff168152602001908152602001600020600084815260200190815260200160002060009054906101000a900460ff161515146106f8576040517f08c379a00000000000000000000000000000000000000000000000000000000081526004018080602001828103825260298152602001806110bd6029913960400191505060405180910390fd5b6000600360003373ffffffffffffffffffffffffffffffffffffffff1673ffffffffffffffffffffffffffffffffffffffff168152602001908152602001600020600084815260200190815260200160002060006101000a81548160ff0219169083151502179055506002828154811061076e57fe5b90600052602060002001600081548092919060010191905055507f89198fef3ad9131391f80618ec44cda13f270bba8a30b3bc67cd91c9ffae3d7b3383604051808373ffffffffffffffffffffffffffffffffffffffff1673ffffffffffffffffffffffffffffffffffffffff1681526020018281526020019250505060405180910390a160019050919050565b6000610812826001610cb490919063ffffffff16565b9050919050565b610829610824610bf8565b610d92565b565b61083b610836610bf8565b6108f4565b610890576040517f08c379a00000000000000000000000000000000000000000000000000000000081526004018080602001828103825260408152602001806110436040913960400191505060405180910390fd5b61089981610dec565b50565b606060028054806020026020016040519081016040528092919081815260200182805480156108ea57602002820191906000526020600020905b8154815260200190600101908083116108d6575b5050505050905090565b600061090a826000610cb490919063ffffffff16565b9050919050565b61092161091c610bf8565b610c5a565b565b6000610935610930610bf8565b6107fc565b61098a576040517f08c379a000000000000000000000000000000000000000000000000000000000815260040180806020018281038252603a815260200180611083603a913960400191505060405180910390fd5b6000821015801561099f575060028054905082105b610a11576040517f08c379a00000000000000000000000000000000000000000000000000000000081526004018080602001828103825260148152602001807f496e76616c6964207265736f757263652049642100000000000000000000000081525060200191505060405180910390fd5b60001515600360003373ffffffffffffffffffffffffffffffffffffffff1673ffffffffffffffffffffffffffffffffffffffff168152602001908152602001600020600084815260200190815260200160002060009054906101000a900460ff16151514610acb576040517f08c379a0000000000000000000000000000000000000000000000000000000008152600401808060200182810382526021815260200180610fdf6021913960400191505060405180910390fd5b600060028381548110610ada57fe5b90600052602060002001541115610bee576001600360003373ffffffffffffffffffffffffffffffffffffffff1673ffffffffffffffffffffffffffffffffffffffff168152602001908152602001600020600084815260200190815260200160002060006101000a81548160ff021916908315150217905550600160028381548110610b6357fe5b90600052602060002001600082825403925050819055507f26dc1288ab800ffb2e819efd4a12b0c75f2449d1df7ea13d8705df79ca7933cb3383604051808373ffffffffffffffffffffffffffffffffffffffff1673ffffffffffffffffffffffffffffffffffffffff1681526020018281526020019250505060405180910390a160019050610bf3565b600090505b919050565b600033905090565b610c14816001610e4690919063ffffffff16565b8073ffffffffffffffffffffffffffffffffffffffff167fee1504a83b6d4a361f4c1dc78ab59bfa30d6a3b6612c403e86bb01ef2984295f60405160405180910390a250565b610c6e816001610f2190919063ffffffff16565b8073ffffffffffffffffffffffffffffffffffffffff167f270d9b30cf5b0793bbfd54c9d5b94aeb49462b8148399000265144a8722da6b660405160405180910390a250565b60008073ffffffffffffffffffffffffffffffffffffffff168273ffffffffffffffffffffffffffffffffffffffff161415610d3b576040517f08c379a00000000000000000000000000000000000000000000000000000000081526004018080602001828103825260228152602001806110216022913960400191505060405180910390fd5b8260000160008373ffffffffffffffffffffffffffffffffffffffff1673ffffffffffffffffffffffffffffffffffffffff16815260200190815260200160002060009054906101000a900460ff16905092915050565b610da6816000610f2190919063ffffffff16565b8073ffffffffffffffffffffffffffffffffffffffff167f0a8eb35e5ca14b3d6f28e4abf2f128dbab231a58b56e89beb5d636115001e16560405160405180910390a250565b610e00816000610e4690919063ffffffff16565b8073ffffffffffffffffffffffffffffffffffffffff167f22380c05984257a1cb900161c713dd71d39e74820f1aea43bd3f1bdd2096129960405160405180910390a250565b610e508282610cb4565b15610ec3576040517f08c379a000000000000000000000000000000000000000000000000000000000815260040180806020018281038252601f8152602001807f526f6c65733a206163636f756e7420616c72656164792068617320726f6c650081525060200191505060405180910390fd5b60018260000160008373ffffffffffffffffffffffffffffffffffffffff1673ffffffffffffffffffffffffffffffffffffffff16815260200190815260200160002060006101000a81548160ff0219169083151502179055505050565b610f2b8282610cb4565b610f80576040517f08c379a00000000000000000000000000000000000000000000000000000000081526004018080602001828103825260218152602001806110006021913960400191505060405180910390fd5b60008260000160008373ffffffffffffffffffffffffffffffffffffffff1673ffffffffffffffffffffffffffffffffffffffff16815260200190815260200160002060006101000a81548160ff021916908315150217905550505056fe596f75206861766520616c6c6f63617465642074686973207265736f7572636521526f6c65733a206163636f756e7420646f6573206e6f74206861766520726f6c65526f6c65733a206163636f756e7420697320746865207a65726f206164647265737357686974656c69737441646d696e526f6c653a2063616c6c657220646f6573206e6f742068617665207468652057686974656c69737441646d696e20726f6c6557686974656c6973746564526f6c653a2063616c6c657220646f6573206e6f742068617665207468652057686974656c697374656420726f6c65596f7520646f6e74277420686176652074686973207265736f7572636520746f2072656c6561736521a265627a7a723158201591f6bac52d5560a2bfb3bc375e98613c5470d0a82bc5670688e439e7ccbd4764736f6c63430005100032526f6c65733a206163636f756e7420697320746865207a65726f206164647265737357686974656c69737441646d696e526f6c653a2063616c6c657220646f6573206e6f742068617665207468652057686974656c69737441646d696e20726f6c65",
  "source": "pragma solidity >=0.4.20 <=0.6.0;\r\n\r\nimport \"@openzeppelin/contracts/access/roles/WhitelistedRole.sol\";\r\n\r\ncontract SimpleResourceAllocation3 is WhitelistedRole {\r\n\r\n    // quotes of all resources, the index of the array represents the Id of that resource\r\n    uint[] private quotes; \r\n    \r\n    // resource ownership of alll users\r\n    mapping(address => mapping(uint => bool)) internal ownership;\r\n    \r\n    event successRequest(address _requester, uint resId);\r\n    event successRelease(address _releaser, uint resId);\r\n\r\n    constructor (uint[] memory _initQuotes, address[] memory _whitelisteds) public {\r\n        quotes = _initQuotes;\r\n        for (uint i = 0; i < _whitelisteds.length; i++){\r\n            addWhitelisted(_whitelisteds[i]);\r\n        }\r\n    }\r\n    \r\n    /// @dev request resource from system\r\n    /// @param _resId  unsigned integer - the Id of the resource wanted\r\n    /// @return _success bool - success status of this transaction\r\n    function request(uint _resId) public onlyWhitelisted returns (bool _success) {\r\n        require(_resId >= 0 && _resId < quotes.length, \"Invalid resource Id!\");\r\n        require(ownership[msg.sender][_resId] == false, \"You have allocated this resource!\");\r\n        if (quotes[_resId] > 0) {\r\n            ownership[msg.sender][_resId] = true;\r\n            quotes[_resId] -= 1;\r\n            emit successRequest(msg.sender, _resId);\r\n            _success = true;\r\n        } else {\r\n            _success = false;\r\n        }\r\n    }\r\n    \r\n    /// @dev release resource to the system\r\n    /// @param _resId  unsigned integer - the Id of the resource to be released\r\n    /// @return _success bool - success status of this transaction\r\n    function release(uint _resId) public onlyWhitelisted returns (bool _success) {\r\n        require(_resId >= 0 && _resId < quotes.length, \"Invalid resource Id!\");\r\n        require(ownership[msg.sender][_resId] == true, \"You dont't have this resource to release!\");\r\n        ownership[msg.sender][_resId] = false;\r\n        quotes[_resId]++;\r\n        emit successRelease(msg.sender, _resId);\r\n        _success = true;\r\n    }\r\n    \r\n    /// @dev query the quote of all available resources \r\n    /// @return _allQuotes array - current quote of all resources\r\n    function viewAllQuotes() external view returns (uint[] memory) {\r\n        return quotes;\r\n    }\r\n    \r\n    /// @dev query my resources \r\n    /// @return _myResources array - tell what resources I have had\r\n    function viewMyResources() external view returns (bool[] memory) {\r\n        bool[] memory temp = new bool[](quotes.length);\r\n        for (uint i = 0; i < quotes.length; i++) {\r\n            temp[i] = ownership[msg.sender][i];\r\n        }\r\n        return temp;\r\n    }\r\n    \r\n}",
  "sourcePath": "D:/codes/7CCSMDLC-code/contracts/ResAloc.sol",
  "compiler": {
    "name": "solc",
    "version": "0.5.16+commit.9c3226ce.Emscripten.clang"
  },
  "schemaVersion": "3.0.21",
  "updatedAt": "2020-03-27T17:31:38.818Z",
  "networkType": "ethereum",
  "devdoc": {
    "methods": {
      "release(uint256)": {
        "details": "release resource to the system",
        "params": {
          "_resId": "unsigned integer - the Id of the resource to be released"
        },
        "return": "_success bool - success status of this transaction"
      },
      "request(uint256)": {
        "details": "request resource from system",
        "params": {
          "_resId": "unsigned integer - the Id of the resource wanted"
        },
        "return": "_success bool - success status of this transaction"
      },
      "viewAllQuotes()": {
        "details": "query the quote of all available resources ",
        "return": "_allQuotes array - current quote of all resources"
      },
      "viewMyResources()": {
        "details": "query my resources ",
        "return": "_myResources array - tell what resources I have had"
      }
    }
  },
  "userdoc": {
    "methods": {}
  }
}