{
  "contractName": "SimpleResourceAllocation3",
  "abi": [
    {
      "inputs": [
        {
          "internalType": "uint256[]",
          "name": "initQuotes",
          "type": "uint256[]"
        }
      ],
      "payable": false,
      "stateMutability": "nonpayable",
      "type": "constructor"
    },
    {
      "constant": false,
      "inputs": [
        {
          "internalType": "uint256",
          "name": "_resId",
          "type": "uint256"
        }
      ],
      "name": "request",
      "outputs": [
        {
          "internalType": "bool",
          "name": "_success",
          "type": "bool"
        }
      ],
      "payable": false,
      "stateMutability": "nonpayable",
      "type": "function"
    },
    {
      "constant": false,
      "inputs": [
        {
          "internalType": "uint256",
          "name": "_resId",
          "type": "uint256"
        }
      ],
      "name": "release",
      "outputs": [
        {
          "internalType": "bool",
          "name": "_success",
          "type": "bool"
        }
      ],
      "payable": false,
      "stateMutability": "nonpayable",
      "type": "function"
    },
    {
      "constant": true,
      "inputs": [],
      "name": "viewAllQuotes",
      "outputs": [
        {
          "internalType": "uint256[]",
          "name": "",
          "type": "uint256[]"
        }
      ],
      "payable": false,
      "stateMutability": "view",
      "type": "function"
    },
    {
      "constant": true,
      "inputs": [],
      "name": "viewMyResources",
      "outputs": [
        {
          "internalType": "bool[]",
          "name": "",
          "type": "bool[]"
        }
      ],
      "payable": false,
      "stateMutability": "view",
      "type": "function"
    }
  ],
  "bytecode": "0x608060405234801561001057600080fd5b506040516108953803806108958339818101604052602081101561003357600080fd5b810190808051604051939291908464010000000082111561005357600080fd5b8382019150602082018581111561006957600080fd5b825186602082028301116401000000008211171561008657600080fd5b8083526020830192505050908051906020019060200280838360005b838110156100bd5780820151818401526020810190506100a2565b5050505090500160405250505080600090805190602001906100e09291906100e7565b5050610159565b828054828255906000526020600020908101928215610123579160200282015b82811115610122578251825591602001919060010190610107565b5b5090506101309190610134565b5090565b61015691905b8082111561015257600081600090555060010161013a565b5090565b90565b61072d806101686000396000f3fe608060405234801561001057600080fd5b506004361061004c5760003560e01c806324db31921461005157806337bdc99b146100b0578063a95f2f4c146100f6578063d845a4b314610155575b600080fd5b61005961019b565b6040518080602001828103825283818151815260200191508051906020019060200280838360005b8381101561009c578082015181840152602081019050610081565b505050509050019250505060405180910390f35b6100dc600480360360208110156100c657600080fd5b8101908080359060200190929190505050610279565b604051808215151515815260200191505060405180910390f35b6100fe610454565b6040518080602001828103825283818151815260200191508051906020019060200280838360005b83811015610141578082015181840152602081019050610126565b505050509050019250505060405180910390f35b6101816004803603602081101561016b57600080fd5b81019080803590602001909291905050506104ac565b604051808215151515815260200191505060405180910390f35b6060806000805490506040519080825280602002602001820160405280156101d25781602001602082028038833980820191505090505b50905060008090505b60008054905081101561027157600160003373ffffffffffffffffffffffffffffffffffffffff1673ffffffffffffffffffffffffffffffffffffffff168152602001908152602001600020600082815260200190815260200160002060009054906101000a900460ff1682828151811061025257fe5b60200260200101901515908115158152505080806001019150506101db565b508091505090565b600080821015801561028f575060008054905082105b610301576040517f08c379a00000000000000000000000000000000000000000000000000000000081526004018080602001828103825260148152602001807f496e76616c6964207265736f757263652049642100000000000000000000000081525060200191505060405180910390fd5b60011515600160003373ffffffffffffffffffffffffffffffffffffffff1673ffffffffffffffffffffffffffffffffffffffff168152602001908152602001600020600084815260200190815260200160002060009054906101000a900460ff161515146103bb576040517f08c379a00000000000000000000000000000000000000000000000000000000081526004018080602001828103825260298152602001806106d06029913960400191505060405180910390fd5b6000600160003373ffffffffffffffffffffffffffffffffffffffff1673ffffffffffffffffffffffffffffffffffffffff168152602001908152602001600020600084815260200190815260200160002060006101000a81548160ff0219169083151502179055506000828154811061043157fe5b906000526020600020016000815480929190600101919050555060019050919050565b606060008054806020026020016040519081016040528092919081815260200182805480156104a257602002820191906000526020600020905b81548152602001906001019080831161048e575b5050505050905090565b60008082101580156104c2575060008054905082105b610534576040517f08c379a00000000000000000000000000000000000000000000000000000000081526004018080602001828103825260148152602001807f496e76616c6964207265736f757263652049642100000000000000000000000081525060200191505060405180910390fd5b60001515600160003373ffffffffffffffffffffffffffffffffffffffff1673ffffffffffffffffffffffffffffffffffffffff168152602001908152602001600020600084815260200190815260200160002060009054906101000a900460ff161515146105ee576040517f08c379a00000000000000000000000000000000000000000000000000000000081526004018080602001828103825260218152602001806106af6021913960400191505060405180910390fd5b60008083815481106105fc57fe5b906000526020600020015411156106a45760018060003373ffffffffffffffffffffffffffffffffffffffff1673ffffffffffffffffffffffffffffffffffffffff168152602001908152602001600020600084815260200190815260200160002060006101000a81548160ff02191690831515021790555060016000838154811061068457fe5b9060005260206000200160008282540392505081905550600190506106a9565b600090505b91905056fe596f75206861766520616c6c6f63617465642074686973207265736f7572636521596f7520646f6e74277420686176652074686973207265736f7572636520746f2072656c6561736521a265627a7a723158201316504a8376f3675177e7a8a2b11e43f35173af31360278b6515403accabd0164736f6c63430005100032",
  "source": "pragma solidity >=0.4.20 <=0.6.0;\r\n\r\nimport \"@openzeppelin/contracts/access/roles/WhitelistedRole.sol\";\r\n\r\ncontract SimpleResourceAllocation3 {\r\n\r\n    // quotes of all resources, the index of the array represents the Id of that resource\r\n    uint[] private quotes; \r\n    \r\n    // resource ownership of alll users\r\n    mapping(address => mapping(uint => bool)) internal ownership;\r\n\r\n    constructor (uint[] memory initQuotes) public {\r\n        quotes = initQuotes;\r\n    }\r\n    \r\n    /// @dev request resource from system\r\n    /// @param _resId  unsigned integer - the Id of the resource wanted\r\n    /// @return _success bool - success status of this transaction\r\n    function request(uint _resId) public  returns (bool _success) {\r\n        require(_resId >= 0 && _resId < quotes.length, \"Invalid resource Id!\");\r\n        require(ownership[msg.sender][_resId] == false, \"You have allocated this resource!\");\r\n        if (quotes[_resId] > 0) {\r\n            ownership[msg.sender][_resId] = true;\r\n            quotes[_resId] -= 1;\r\n            _success = true;\r\n        } else {\r\n            _success = false;\r\n        }\r\n    }\r\n    \r\n    /// @dev release resource to the system\r\n    /// @param _resId  unsigned integer - the Id of the resource to be released\r\n    /// @return _success bool - success status of this transaction\r\n    function release(uint _resId) public returns (bool _success) {\r\n        require(_resId >= 0 && _resId < quotes.length, \"Invalid resource Id!\");\r\n        require(ownership[msg.sender][_resId] == true, \"You dont't have this resource to release!\");\r\n        ownership[msg.sender][_resId] = false;\r\n        quotes[_resId]++;\r\n        _success = true;\r\n    }\r\n    \r\n    /// @dev query the quote of all available resources \r\n    /// @return _allQuotes array - current quote of all resources\r\n    function viewAllQuotes() external view returns (uint[] memory) {\r\n        return quotes;\r\n    }\r\n    \r\n    /// @dev query my resources \r\n    /// @return _myResources array - tell what resources I have had\r\n    function viewMyResources() external view returns (bool[] memory) {\r\n        bool[] memory temp = new bool[](quotes.length);\r\n        for (uint i = 0; i < quotes.length; i++) {\r\n            temp[i] = ownership[msg.sender][i];\r\n        }\r\n        return temp;\r\n    }\r\n    \r\n}\r\n",
  "sourcePath": "D:/OneDrive/lessons/pgt-ai/blockchain/code/7CCSMDLC/contracts/ResAloc.sol",
  "compiler": {
    "name": "solc",
    "version": "0.5.16+commit.9c3226ce.Emscripten.clang"
  },
  "schemaVersion": "3.0.21",
  "updatedAt": "2020-02-23T17:12:09.606Z",
  "devdoc": {
    "methods": {
      "release(uint256)": {
        "details": "release resource to the system",
        "params": {
          "_resId": "unsigned integer - the Id of the resource to be released"
        },
        "return": "_success bool - success status of this transaction"
      },
      "request(uint256)": {
        "details": "request resource from system",
        "params": {
          "_resId": "unsigned integer - the Id of the resource wanted"
        },
        "return": "_success bool - success status of this transaction"
      },
      "viewAllQuotes()": {
        "details": "query the quote of all available resources ",
        "return": "_allQuotes array - current quote of all resources"
      },
      "viewMyResources()": {
        "details": "query my resources ",
        "return": "_myResources array - tell what resources I have had"
      }
    }
  },
  "userdoc": {
    "methods": {}
  }
}