{
  "contractName": "utils",
  "abi": [
    {
      "constant": true,
      "inputs": [
        {
          "internalType": "bytes32",
          "name": "data",
          "type": "bytes32"
        }
      ],
      "name": "bytes32ToString",
      "outputs": [
        {
          "internalType": "string",
          "name": "",
          "type": "string"
        }
      ],
      "payable": false,
      "stateMutability": "pure",
      "type": "function"
    },
    {
      "constant": true,
      "inputs": [
        {
          "internalType": "uint256",
          "name": "x",
          "type": "uint256"
        }
      ],
      "name": "toBytes",
      "outputs": [
        {
          "internalType": "bytes",
          "name": "b",
          "type": "bytes"
        }
      ],
      "payable": false,
      "stateMutability": "pure",
      "type": "function"
    },
    {
      "constant": true,
      "inputs": [
        {
          "internalType": "uint256",
          "name": "_min",
          "type": "uint256"
        },
        {
          "internalType": "uint256",
          "name": "_max",
          "type": "uint256"
        }
      ],
      "name": "randint",
      "outputs": [
        {
          "internalType": "uint256",
          "name": "",
          "type": "uint256"
        }
      ],
      "payable": false,
      "stateMutability": "view",
      "type": "function"
    }
  ],
  "bytecode": "0x610371610026600b82828239805160001a60731461001957fe5b30600052607381538281f3fe730000000000000000000000000000000000000000301460806040526004361061004b5760003560e01c8063775a8f5e146100505780639201de55146100f7578063c83e348b1461019e575b600080fd5b61007c6004803603602081101561006657600080fd5b81019080803590602001909291905050506101ea565b6040518080602001828103825283818151815260200191508051906020019080838360005b838110156100bc5780820151818401526020810190506100a1565b50505050905090810190601f1680156100e95780820380516001836020036101000a031916815260200191505b509250505060405180910390f35b6101236004803603602081101561010d57600080fd5b810190808035906020019092919050505061022e565b6040518080602001828103825283818151815260200191508051906020019080838360005b83811015610163578082015181840152602081019050610148565b50505050905090810190601f1680156101905780820380516001836020036101000a031916815260200191505b509250505060405180910390f35b6101d4600480360360408110156101b457600080fd5b81019080803590602001909291908035906020019092919050505061030c565b6040518082815260200191505060405180910390f35b606060206040519080825280601f01601f1916602001820160405280156102205781602001600182028038833980820191505090505b509050816020820152919050565b60608060206040519080825280601f01601f1916602001820160405280156102655781602001600182028038833980820191505090505b50905060008090505b60208110156103025760008160080260020a8560001c0260001b9050600060f81b817effffffffffffffffffffffffffffffffffffffffffffffffffffffffffffff1916146102f457808383815181106102c457fe5b60200101907effffffffffffffffffffffffffffffffffffffffffffffffffffffffffffff1916908160001a9053505b50808060010191505061026e565b5080915050919050565b60006060610319426101ea565b905083848403828051906020012060001c8161033157fe5b06019150509291505056fea265627a7a723158207dde22824acfa949d2a68d66a0f189852a8ca9fc27e79ea3d791ae8d0a448ee264736f6c63430005100032",
  "source": "pragma solidity >=0.4.20 <=0.6.0;\r\n\r\nlibrary utils {\r\n    \r\n    function bytes32ToString (bytes32 data) public pure returns (string memory) {\r\n        bytes memory bytesString = new bytes(32);\r\n        for (uint j=0; j<32; j++) {\r\n            byte char = byte(bytes32(uint(data) * 2 ** (8 * j)));\r\n            if (char != 0) {\r\n                bytesString[j] = char;\r\n            }\r\n        }\r\n        return string(bytesString);\r\n    }\r\n    \r\n    function toBytes(uint256 x) public pure returns (bytes memory b) {\r\n        b = new bytes(32);\r\n        assembly { mstore(add(b, 32), x) }\r\n    }\r\n\r\n    function randint (uint _min, uint _max) public view returns (uint) {\r\n        bytes memory rand = toBytes(now);\r\n        return uint(keccak256(rand)) % (_max - _min) + _min;\r\n    }\r\n}\r\n",
  "sourcePath": "D:/codes/7CCSMDLC-code/contracts/Utils.sol",
  "compiler": {
    "name": "solc",
    "version": "0.5.16+commit.9c3226ce.Emscripten.clang"
  },
  "schemaVersion": "3.0.21",
  "updatedAt": "2020-03-24T07:35:41.541Z",
  "devdoc": {
    "methods": {}
  },
  "userdoc": {
    "methods": {}
  }
}